{
  "contractName": "Guestbook",
  "abi": [
    {
      "constant": true,
      "inputs": [
        {
          "name": "",
          "type": "uint256"
        }
      ],
      "name": "guests",
      "outputs": [
        {
          "name": "",
          "type": "bytes32"
        }
      ],
      "payable": false,
      "stateMutability": "view",
      "type": "function"
    },
    {
      "anonymous": false,
      "inputs": [
        {
          "indexed": false,
          "name": "message",
          "type": "string"
        },
        {
          "indexed": false,
          "name": "name",
          "type": "bytes32"
        }
      ],
      "name": "SignatureAdded",
      "type": "event"
    },
    {
      "constant": false,
      "inputs": [
        {
          "name": "name",
          "type": "bytes32"
        }
      ],
      "name": "signBook",
      "outputs": [],
      "payable": false,
      "stateMutability": "nonpayable",
      "type": "function"
    },
    {
      "constant": true,
      "inputs": [],
      "name": "getNames",
      "outputs": [
        {
          "name": "",
          "type": "bytes32[]"
        }
      ],
      "payable": false,
      "stateMutability": "view",
      "type": "function"
    }
  ],
  "bytecode": "0x608060405234801561001057600080fd5b50610259806100206000396000f3fe608060405234801561001057600080fd5b50600436106100415760003560e01c8063041be4f814610046578063902dd26714610074578063cd838f0f146100b6575b600080fd5b6100726004803603602081101561005c57600080fd5b8101908080359060200190929190505050610115565b005b6100a06004803603602081101561008a57600080fd5b81019080803590602001909291905050506101b4565b6040518082815260200191505060405180910390f35b6100be6101d5565b6040518080602001828103825283818151815260200191508051906020019060200280838360005b838110156101015780820151818401526020810190506100e6565b505050509050019250505060405180910390f35b60008190806001815401808255809150509060018203906000526020600020016000909192909190915055507f52459aff3b9a588e65d060c0affd7121b01e01e17dfcc75e0050b9035822e319816040518080602001838152602001828103825260148152602001807f4e6577206775657374207369676e6174757265210000000000000000000000008152506020019250505060405180910390a150565b600081815481106101c157fe5b906000526020600020016000915090505481565b6060600080548060200260200160405190810160405280929190818152602001828054801561022357602002820191906000526020600020905b81548152602001906001019080831161020f575b505050505090509056fea165627a7a723058203b7eb1a32eaf8789e165aee54c9b58afe2525cec8935ec3b63727183615168170029",
  "source": "pragma solidity >=0.4.21 <0.6.0;\n\ncontract Guestbook {\n  event SignatureAdded(string message, bytes32 name);\n\n  bytes32[] public guests;\n\n  function signBook(bytes32 name) public {\n    guests.push(name);\n    emit SignatureAdded(\"New guest signature!\", name);\n  }\n\n  function getNames() public view returns (bytes32[] memory){\n    return guests;\n  }\n}\n",
  "sourcePath": "/Users/jameskehoe/code/guestbook/contracts/Guestbook.sol",
  "compiler": {
    "name": "solc",
    "version": "0.5.8+commit.23d335f2.Emscripten.clang"
  },
  "schemaVersion": "3.0.10",
  "updatedAt": "2019-08-06T11:12:33.903Z",
  "devdoc": {
    "methods": {}
  },
  "userdoc": {
    "methods": {}
  }
}