{
  "contractName": "Guestbook",
  "abi": [
    {
      "anonymous": false,
      "inputs": [
        {
          "indexed": false,
          "name": "message",
          "type": "string"
        },
        {
          "indexed": false,
          "name": "name",
          "type": "bytes32"
        }
      ],
      "name": "SignatureAdded",
      "type": "event"
    },
    {
      "constant": false,
      "inputs": [
        {
          "name": "name",
          "type": "bytes32"
        }
      ],
      "name": "signBook",
      "outputs": [],
      "payable": false,
      "stateMutability": "nonpayable",
      "type": "function"
    },
    {
      "constant": true,
      "inputs": [],
      "name": "getNames",
      "outputs": [
        {
          "name": "",
          "type": "bytes32[]"
        }
      ],
      "payable": false,
      "stateMutability": "view",
      "type": "function"
    }
  ],
  "bytecode": "0x608060405234801561001057600080fd5b506101eb806100206000396000f3fe608060405234801561001057600080fd5b50600436106100365760003560e01c8063041be4f81461003b578063cd838f0f14610069575b600080fd5b6100676004803603602081101561005157600080fd5b81019080803590602001909291905050506100c8565b005b610071610167565b6040518080602001828103825283818151815260200191508051906020019060200280838360005b838110156100b4578082015181840152602081019050610099565b505050509050019250505060405180910390f35b60008190806001815401808255809150509060018203906000526020600020016000909192909190915055507f52459aff3b9a588e65d060c0affd7121b01e01e17dfcc75e0050b9035822e319816040518080602001838152602001828103825260148152602001807f4e6577206775657374207369676e6174757265210000000000000000000000008152506020019250505060405180910390a150565b606060008054806020026020016040519081016040528092919081815260200182805480156101b557602002820191906000526020600020905b8154815260200190600101908083116101a1575b505050505090509056fea165627a7a723058207ad308c33802ed82d0cab79657a1619986d9ecf658ff1bc570f60b9ee477ec770029",
  "source": "pragma solidity >=0.4.21 <0.6.0;\n\ncontract Guestbook {\n  event SignatureAdded(string message, bytes32 name);\n\n  bytes32[] guests;\n\n  function signBook(bytes32 name) public {\n    guests.push(name);\n    emit SignatureAdded(\"New guest signature!\", name);\n  }\n\n  function getNames() public view returns (bytes32[] memory) {\n    return guests;\n  }\n}\n",
  "sourcePath": "/Users/jameskehoe/code/guest-list/contracts/Guestbook.sol",
  "compiler": {
    "name": "solc",
    "version": "0.5.8+commit.23d335f2.Emscripten.clang"
  },
  "schemaVersion": "3.0.10",
  "updatedAt": "2019-08-04T20:26:19.544Z",
  "devdoc": {
    "methods": {}
  },
  "userdoc": {
    "methods": {}
  }
}